{
  "_format": "hh-sol-artifact-1",
  "contractName": "LetterOfCredit",
  "sourceName": "contracts/LetterOfCredit.sol",
  "abi": [
    {
      "inputs": [
        {
          "internalType": "address payable",
          "name": "_buyer",
          "type": "address"
        },
        {
          "internalType": "address payable",
          "name": "_seller",
          "type": "address"
        },
        {
          "internalType": "address",
          "name": "_shippingManager",
          "type": "address"
        }
      ],
      "stateMutability": "nonpayable",
      "type": "constructor"
    },
    {
      "anonymous": false,
      "inputs": [
        {
          "indexed": false,
          "internalType": "address",
          "name": "by",
          "type": "address"
        }
      ],
      "name": "BargainCancelledBy",
      "type": "event"
    },
    {
      "anonymous": false,
      "inputs": [
        {
          "indexed": false,
          "internalType": "enum LetterOfCredit.States",
          "name": "to",
          "type": "uint8"
        },
        {
          "indexed": false,
          "internalType": "address",
          "name": "by",
          "type": "address"
        }
      ],
      "name": "StateChangedToBy",
      "type": "event"
    },
    {
      "inputs": [
        {
          "internalType": "address",
          "name": "",
          "type": "address"
        }
      ],
      "name": "bargainInitializedBy",
      "outputs": [
        {
          "internalType": "uint256",
          "name": "bargainSum",
          "type": "uint256"
        },
        {
          "internalType": "uint256",
          "name": "bargainDeadline",
          "type": "uint256"
        },
        {
          "internalType": "string",
          "name": "description",
          "type": "string"
        },
        {
          "internalType": "enum LetterOfCredit.States",
          "name": "bargainState",
          "type": "uint8"
        }
      ],
      "stateMutability": "view",
      "type": "function"
    },
    {
      "inputs": [],
      "name": "buyer",
      "outputs": [
        {
          "internalType": "address payable",
          "name": "",
          "type": "address"
        }
      ],
      "stateMutability": "view",
      "type": "function"
    },
    {
      "inputs": [],
      "name": "cancelBargainBuyer",
      "outputs": [],
      "stateMutability": "nonpayable",
      "type": "function"
    },
    {
      "inputs": [],
      "name": "cancelBargainSeller",
      "outputs": [],
      "stateMutability": "nonpayable",
      "type": "function"
    },
    {
      "inputs": [
        {
          "internalType": "uint256",
          "name": "_sum",
          "type": "uint256"
        },
        {
          "internalType": "uint256",
          "name": "_bargainDeadline",
          "type": "uint256"
        },
        {
          "internalType": "string",
          "name": "_description",
          "type": "string"
        }
      ],
      "name": "createBargain",
      "outputs": [
        {
          "internalType": "bool",
          "name": "",
          "type": "bool"
        }
      ],
      "stateMutability": "payable",
      "type": "function"
    },
    {
      "inputs": [
        {
          "internalType": "enum LetterOfCredit.States",
          "name": "_state",
          "type": "uint8"
        }
      ],
      "name": "pushStateForwardTo",
      "outputs": [],
      "stateMutability": "nonpayable",
      "type": "function"
    },
    {
      "inputs": [],
      "name": "seller",
      "outputs": [
        {
          "internalType": "address payable",
          "name": "",
          "type": "address"
        }
      ],
      "stateMutability": "view",
      "type": "function"
    },
    {
      "inputs": [],
      "name": "shippingManager",
      "outputs": [
        {
          "internalType": "address",
          "name": "",
          "type": "address"
        }
      ],
      "stateMutability": "view",
      "type": "function"
    },
    {
      "inputs": [],
      "name": "transferPaymentsToParties",
      "outputs": [],
      "stateMutability": "nonpayable",
      "type": "function"
    }
  ],
  "bytecode": "0x60806040523480156200001157600080fd5b506040516200300b3803806200300b833981810160405281019062000037919062000130565b826000806101000a81548173ffffffffffffffffffffffffffffffffffffffff021916908373ffffffffffffffffffffffffffffffffffffffff16021790555081600160006101000a81548173ffffffffffffffffffffffffffffffffffffffff021916908373ffffffffffffffffffffffffffffffffffffffff16021790555080600260006101000a81548173ffffffffffffffffffffffffffffffffffffffff021916908373ffffffffffffffffffffffffffffffffffffffff16021790555050505062000202565b6000815190506200011381620001ce565b92915050565b6000815190506200012a81620001e8565b92915050565b6000806000606084860312156200014657600080fd5b6000620001568682870162000119565b9350506020620001698682870162000119565b92505060406200017c8682870162000102565b9150509250925092565b60006200019382620001ae565b9050919050565b6000620001a782620001ae565b9050919050565b600073ffffffffffffffffffffffffffffffffffffffff82169050919050565b620001d98162000186565b8114620001e557600080fd5b50565b620001f3816200019a565b8114620001ff57600080fd5b50565b612df980620002126000396000f3fe6080604052600436106100865760003560e01c806345c7216d1161005957806345c7216d146101215780637150d8ae146101615780637d0fc6181461018c5780639ab17423146101a3578063abf905f5146101ba57610086565b806308551a531461008b5780631cd17035146100b657806331d1ff7e146100e15780634140f66d146100f8575b600080fd5b34801561009757600080fd5b506100a06101ea565b6040516100ad91906126de565b60405180910390f35b3480156100c257600080fd5b506100cb610210565b6040516100d891906126c3565b60405180910390f35b3480156100ed57600080fd5b506100f6610236565b005b34801561010457600080fd5b5061011f600480360381019061011a9190612492565b6103ca565b005b34801561012d57600080fd5b5061014860048036038101906101439190612469565b61054d565b604051610158949392919061283d565b60405180910390f35b34801561016d57600080fd5b50610176610612565b60405161018391906126de565b60405180910390f35b34801561019857600080fd5b506101a1610636565b005b3480156101af57600080fd5b506101b861075e565b005b6101d460048036038101906101cf91906124bb565b6108ff565b6040516101e191906126f9565b60405180910390f35b600160009054906101000a900473ffffffffffffffffffffffffffffffffffffffff1681565b600260009054906101000a900473ffffffffffffffffffffffffffffffffffffffff1681565b600160009054906101000a900473ffffffffffffffffffffffffffffffffffffffff1673ffffffffffffffffffffffffffffffffffffffff163373ffffffffffffffffffffffffffffffffffffffff16146102c6576040517f08c379a00000000000000000000000000000000000000000000000000000000081526004016102bd906127bd565b60405180910390fd5b6102d06000610dfa565b6000806102dd6003611e20565b915091503373ffffffffffffffffffffffffffffffffffffffff166108fc839081150290604051600060405180830381858888f19350505050158015610327573d6000803e3d6000fd5b5060008054906101000a900473ffffffffffffffffffffffffffffffffffffffff1673ffffffffffffffffffffffffffffffffffffffff166108fc829081150290604051600060405180830381858888f1935050505015801561038e573d6000803e3d6000fd5b507fa1c671ea937885a1c11b319e4bed939d3aa3cf4c3c095d4e8f4598781fb75581336040516103be91906126c3565b60405180910390a15050565b60008054906101000a900473ffffffffffffffffffffffffffffffffffffffff1673ffffffffffffffffffffffffffffffffffffffff163373ffffffffffffffffffffffffffffffffffffffff1614806104715750600160009054906101000a900473ffffffffffffffffffffffffffffffffffffffff1673ffffffffffffffffffffffffffffffffffffffff163373ffffffffffffffffffffffffffffffffffffffff16145b806104c95750600260009054906101000a900473ffffffffffffffffffffffffffffffffffffffff1673ffffffffffffffffffffffffffffffffffffffff163373ffffffffffffffffffffffffffffffffffffffff16145b610508576040517f08c379a00000000000000000000000000000000000000000000000000000000081526004016104ff906127bd565b60405180910390fd5b61051181610dfa565b7f389815fffb8275bc55b802f0a634d3d0aa4a2b602fa9476582f4732b9c9dbba78133604051610542929190612714565b60405180910390a150565b600360205280600052604060002060009150905080600001549080600101549080600201805461057c90612a6c565b80601f01602080910402602001604051908101604052809291908181526020018280546105a890612a6c565b80156105f55780601f106105ca576101008083540402835291602001916105f5565b820191906000526020600020905b8154815290600101906020018083116105d857829003601f168201915b5050505050908060030160009054906101000a900460ff16905084565b60008054906101000a900473ffffffffffffffffffffffffffffffffffffffff1681565b60008054906101000a900473ffffffffffffffffffffffffffffffffffffffff1673ffffffffffffffffffffffffffffffffffffffff163373ffffffffffffffffffffffffffffffffffffffff16146106c4576040517f08c379a00000000000000000000000000000000000000000000000000000000081526004016106bb906127bd565b60405180910390fd5b6106ce6000610dfa565b60006106da6001611e20565b9150503373ffffffffffffffffffffffffffffffffffffffff166108fc829081150290604051600060405180830381858888f19350505050158015610723573d6000803e3d6000fd5b507fa1c671ea937885a1c11b319e4bed939d3aa3cf4c3c095d4e8f4598781fb755813360405161075391906126c3565b60405180910390a150565b6000806107da600360008060009054906101000a900473ffffffffffffffffffffffffffffffffffffffff1673ffffffffffffffffffffffffffffffffffffffff1673ffffffffffffffffffffffffffffffffffffffff16815260200190815260200160002060030160009054906101000a900460ff16611e20565b915091506107e86006610dfa565b600081146108585760008054906101000a900473ffffffffffffffffffffffffffffffffffffffff1673ffffffffffffffffffffffffffffffffffffffff166108fc829081150290604051600060405180830381858888f19350505050158015610856573d6000803e3d6000fd5b505b600160009054906101000a900473ffffffffffffffffffffffffffffffffffffffff1673ffffffffffffffffffffffffffffffffffffffff166108fc839081150290604051600060405180830381858888f193505050501580156108c0573d6000803e3d6000fd5b507f389815fffb8275bc55b802f0a634d3d0aa4a2b602fa9476582f4732b9c9dbba76006336040516108f3929190612714565b60405180910390a15050565b6000848460008054906101000a900473ffffffffffffffffffffffffffffffffffffffff1673ffffffffffffffffffffffffffffffffffffffff163373ffffffffffffffffffffffffffffffffffffffff1614610991576040517f08c379a0000000000000000000000000000000000000000000000000000000008152600401610988906127bd565b60405180910390fd5b600060068111156109cb577f4e487b7100000000000000000000000000000000000000000000000000000000600052602160045260246000fd5b600360008060009054906101000a900473ffffffffffffffffffffffffffffffffffffffff1673ffffffffffffffffffffffffffffffffffffffff1673ffffffffffffffffffffffffffffffffffffffff16815260200190815260200160002060030160009054906101000a900460ff166006811115610a74577f4e487b7100000000000000000000000000000000000000000000000000000000600052602160045260246000fd5b1480610b5f5750600680811115610ab4577f4e487b7100000000000000000000000000000000000000000000000000000000600052602160045260246000fd5b600360008060009054906101000a900473ffffffffffffffffffffffffffffffffffffffff1673ffffffffffffffffffffffffffffffffffffffff1673ffffffffffffffffffffffffffffffffffffffff16815260200190815260200160002060030160009054906101000a900460ff166006811115610b5d577f4e487b7100000000000000000000000000000000000000000000000000000000600052602160045260246000fd5b145b610b9e576040517f08c379a0000000000000000000000000000000000000000000000000000000008152600401610b95906127dd565b60405180910390fd5b60008211610be1576040517f08c379a0000000000000000000000000000000000000000000000000000000008152600401610bd89061277d565b60405180910390fd5b348214610c23576040517f08c379a0000000000000000000000000000000000000000000000000000000008152600401610c1a9061279d565b60405180910390fd5b4281118015610c4057506303b5380042610c3d91906128a5565b81105b610c7f576040517f08c379a0000000000000000000000000000000000000000000000000000000008152600401610c769061273d565b60405180910390fd5b6000604051806080016040528089815260200188815260200187878080601f016020809104026020016040519081016040528093929190818152602001838380828437600081840152601f19601f82011690508083019250505050505050815260200160016006811115610d1c577f4e487b7100000000000000000000000000000000000000000000000000000000600052602160045260246000fd5b815250905080600360003373ffffffffffffffffffffffffffffffffffffffff1673ffffffffffffffffffffffffffffffffffffffff16815260200190815260200160002060008201518160000155602082015181600101556040820151816002019080519060200190610d9192919061233d565b5060608201518160030160006101000a81548160ff02191690836006811115610de3577f4e487b7100000000000000000000000000000000000000000000000000000000600052602160045260246000fd5b021790555090505060019350505050949350505050565b60026006811115610e34577f4e487b7100000000000000000000000000000000000000000000000000000000600052602160045260246000fd5b816006811115610e6d577f4e487b7100000000000000000000000000000000000000000000000000000000600052602160045260246000fd5b14156110285760008054906101000a900473ffffffffffffffffffffffffffffffffffffffff1673ffffffffffffffffffffffffffffffffffffffff163373ffffffffffffffffffffffffffffffffffffffff16148015610f8d575060016006811115610f03577f4e487b7100000000000000000000000000000000000000000000000000000000600052602160045260246000fd5b600360003373ffffffffffffffffffffffffffffffffffffffff1673ffffffffffffffffffffffffffffffffffffffff16815260200190815260200160002060030160009054906101000a900460ff166006811115610f8b577f4e487b7100000000000000000000000000000000000000000000000000000000600052602160045260246000fd5b145b610f9657600080fd5b6002600360003373ffffffffffffffffffffffffffffffffffffffff1673ffffffffffffffffffffffffffffffffffffffff16815260200190815260200160002060030160006101000a81548160ff02191690836006811115611022577f4e487b7100000000000000000000000000000000000000000000000000000000600052602160045260246000fd5b02179055505b60036006811115611062577f4e487b7100000000000000000000000000000000000000000000000000000000600052602160045260246000fd5b81600681111561109b577f4e487b7100000000000000000000000000000000000000000000000000000000600052602160045260246000fd5b141561129957600260009054906101000a900473ffffffffffffffffffffffffffffffffffffffff1673ffffffffffffffffffffffffffffffffffffffff163373ffffffffffffffffffffffffffffffffffffffff161480156111de575060026006811115611133577f4e487b7100000000000000000000000000000000000000000000000000000000600052602160045260246000fd5b600360008060009054906101000a900473ffffffffffffffffffffffffffffffffffffffff1673ffffffffffffffffffffffffffffffffffffffff1673ffffffffffffffffffffffffffffffffffffffff16815260200190815260200160002060030160009054906101000a900460ff1660068111156111dc577f4e487b7100000000000000000000000000000000000000000000000000000000600052602160045260246000fd5b145b6111e757600080fd5b60038060008060009054906101000a900473ffffffffffffffffffffffffffffffffffffffff1673ffffffffffffffffffffffffffffffffffffffff1673ffffffffffffffffffffffffffffffffffffffff16815260200190815260200160002060030160006101000a81548160ff02191690836006811115611293577f4e487b7100000000000000000000000000000000000000000000000000000000600052602160045260246000fd5b02179055505b600460068111156112d3577f4e487b7100000000000000000000000000000000000000000000000000000000600052602160045260246000fd5b81600681111561130c577f4e487b7100000000000000000000000000000000000000000000000000000000600052602160045260246000fd5b148061138857506005600681111561134d577f4e487b7100000000000000000000000000000000000000000000000000000000600052602160045260246000fd5b816006811115611386577f4e487b7100000000000000000000000000000000000000000000000000000000600052602160045260246000fd5b145b156115625760008054906101000a900473ffffffffffffffffffffffffffffffffffffffff1673ffffffffffffffffffffffffffffffffffffffff163373ffffffffffffffffffffffffffffffffffffffff161480156114c857506003600681111561141d577f4e487b7100000000000000000000000000000000000000000000000000000000600052602160045260246000fd5b600360008060009054906101000a900473ffffffffffffffffffffffffffffffffffffffff1673ffffffffffffffffffffffffffffffffffffffff1673ffffffffffffffffffffffffffffffffffffffff16815260200190815260200160002060030160009054906101000a900460ff1660068111156114c6577f4e487b7100000000000000000000000000000000000000000000000000000000600052602160045260246000fd5b145b6114d157600080fd5b80600360003373ffffffffffffffffffffffffffffffffffffffff1673ffffffffffffffffffffffffffffffffffffffff16815260200190815260200160002060030160006101000a81548160ff0219169083600681111561155c577f4e487b7100000000000000000000000000000000000000000000000000000000600052602160045260246000fd5b02179055505b6000600681111561159c577f4e487b7100000000000000000000000000000000000000000000000000000000600052602160045260246000fd5b8160068111156115d5577f4e487b7100000000000000000000000000000000000000000000000000000000600052602160045260246000fd5b1415611ae45760008054906101000a900473ffffffffffffffffffffffffffffffffffffffff1673ffffffffffffffffffffffffffffffffffffffff163373ffffffffffffffffffffffffffffffffffffffff1614156118495760016006811115611669577f4e487b7100000000000000000000000000000000000000000000000000000000600052602160045260246000fd5b600360003373ffffffffffffffffffffffffffffffffffffffff1673ffffffffffffffffffffffffffffffffffffffff16815260200190815260200160002060030160009054906101000a900460ff1660068111156116f1577f4e487b7100000000000000000000000000000000000000000000000000000000600052602160045260246000fd5b1480611809575060026006811115611732577f4e487b7100000000000000000000000000000000000000000000000000000000600052602160045260246000fd5b600360003373ffffffffffffffffffffffffffffffffffffffff1673ffffffffffffffffffffffffffffffffffffffff16815260200190815260200160002060030160009054906101000a900460ff1660068111156117ba577f4e487b7100000000000000000000000000000000000000000000000000000000600052602160045260246000fd5b1480156118085750600360003373ffffffffffffffffffffffffffffffffffffffff1673ffffffffffffffffffffffffffffffffffffffff1681526020019081526020016000206001015442115b5b611848576040517f08c379a000000000000000000000000000000000000000000000000000000000815260040161183f906127fd565b60405180910390fd5b5b600160009054906101000a900473ffffffffffffffffffffffffffffffffffffffff1673ffffffffffffffffffffffffffffffffffffffff163373ffffffffffffffffffffffffffffffffffffffff161415611a3157600360068111156118d9577f4e487b7100000000000000000000000000000000000000000000000000000000600052602160045260246000fd5b600360008060009054906101000a900473ffffffffffffffffffffffffffffffffffffffff1673ffffffffffffffffffffffffffffffffffffffff1673ffffffffffffffffffffffffffffffffffffffff16815260200190815260200160002060030160009054906101000a900460ff166006811115611982577f4e487b7100000000000000000000000000000000000000000000000000000000600052602160045260246000fd5b1480156119f15750600360008060009054906101000a900473ffffffffffffffffffffffffffffffffffffffff1673ffffffffffffffffffffffffffffffffffffffff1673ffffffffffffffffffffffffffffffffffffffff1681526020019081526020016000206001015442115b611a30576040517f08c379a0000000000000000000000000000000000000000000000000000000008152600401611a279061281d565b60405180910390fd5b5b6000600360008060009054906101000a900473ffffffffffffffffffffffffffffffffffffffff1673ffffffffffffffffffffffffffffffffffffffff1673ffffffffffffffffffffffffffffffffffffffff16815260200190815260200160002060030160006101000a81548160ff02191690836006811115611ade577f4e487b7100000000000000000000000000000000000000000000000000000000600052602160045260246000fd5b02179055505b600680811115611b1d577f4e487b7100000000000000000000000000000000000000000000000000000000600052602160045260246000fd5b816006811115611b56577f4e487b7100000000000000000000000000000000000000000000000000000000600052602160045260246000fd5b1415611e1d5760046006811115611b96577f4e487b7100000000000000000000000000000000000000000000000000000000600052602160045260246000fd5b600360008060009054906101000a900473ffffffffffffffffffffffffffffffffffffffff1673ffffffffffffffffffffffffffffffffffffffff1673ffffffffffffffffffffffffffffffffffffffff16815260200190815260200160002060030160009054906101000a900460ff166006811115611c3f577f4e487b7100000000000000000000000000000000000000000000000000000000600052602160045260246000fd5b1480611d2b575060056006811115611c80577f4e487b7100000000000000000000000000000000000000000000000000000000600052602160045260246000fd5b600360008060009054906101000a900473ffffffffffffffffffffffffffffffffffffffff1673ffffffffffffffffffffffffffffffffffffffff1673ffffffffffffffffffffffffffffffffffffffff16815260200190815260200160002060030160009054906101000a900460ff166006811115611d29577f4e487b7100000000000000000000000000000000000000000000000000000000600052602160045260246000fd5b145b611d6a576040517f08c379a0000000000000000000000000000000000000000000000000000000008152600401611d619061275d565b60405180910390fd5b6006600360008060009054906101000a900473ffffffffffffffffffffffffffffffffffffffff1673ffffffffffffffffffffffffffffffffffffffff1673ffffffffffffffffffffffffffffffffffffffff16815260200190815260200160002060030160006101000a81548160ff02191690836006811115611e17577f4e487b7100000000000000000000000000000000000000000000000000000000600052602160045260246000fd5b02179055505b50565b60008060016006811115611e5d577f4e487b7100000000000000000000000000000000000000000000000000000000600052602160045260246000fd5b836006811115611e96577f4e487b7100000000000000000000000000000000000000000000000000000000600052602160045260246000fd5b1480611f12575060026006811115611ed7577f4e487b7100000000000000000000000000000000000000000000000000000000600052602160045260246000fd5b836006811115611f10577f4e487b7100000000000000000000000000000000000000000000000000000000600052602160045260246000fd5b145b15611f8257600360008060009054906101000a900473ffffffffffffffffffffffffffffffffffffffff1673ffffffffffffffffffffffffffffffffffffffff1673ffffffffffffffffffffffffffffffffffffffff168152602001908152602001600020600001549050600091505b60036006811115611fbc577f4e487b7100000000000000000000000000000000000000000000000000000000600052602160045260246000fd5b836006811115611ff5577f4e487b7100000000000000000000000000000000000000000000000000000000600052602160045260246000fd5b14156120eb576064601e600360008060009054906101000a900473ffffffffffffffffffffffffffffffffffffffff1673ffffffffffffffffffffffffffffffffffffffff1673ffffffffffffffffffffffffffffffffffffffff1681526020019081526020016000206000015461206d919061292c565b61207791906128fb565b915081600360008060009054906101000a900473ffffffffffffffffffffffffffffffffffffffff1673ffffffffffffffffffffffffffffffffffffffff1673ffffffffffffffffffffffffffffffffffffffff168152602001908152602001600020600001546120e89190612986565b90505b60046006811115612125577f4e487b7100000000000000000000000000000000000000000000000000000000600052602160045260246000fd5b83600681111561215e577f4e487b7100000000000000000000000000000000000000000000000000000000600052602160045260246000fd5b14156121cf5760009050600360008060009054906101000a900473ffffffffffffffffffffffffffffffffffffffff1673ffffffffffffffffffffffffffffffffffffffff1673ffffffffffffffffffffffffffffffffffffffff1681526020019081526020016000206000015491505b60056006811115612209577f4e487b7100000000000000000000000000000000000000000000000000000000600052602160045260246000fd5b836006811115612242577f4e487b7100000000000000000000000000000000000000000000000000000000600052602160045260246000fd5b1415612338576064600f600360008060009054906101000a900473ffffffffffffffffffffffffffffffffffffffff1673ffffffffffffffffffffffffffffffffffffffff1673ffffffffffffffffffffffffffffffffffffffff168152602001908152602001600020600001546122ba919061292c565b6122c491906128fb565b915081600360008060009054906101000a900473ffffffffffffffffffffffffffffffffffffffff1673ffffffffffffffffffffffffffffffffffffffff1673ffffffffffffffffffffffffffffffffffffffff168152602001908152602001600020600001546123359190612986565b90505b915091565b82805461234990612a6c565b90600052602060002090601f01602090048101928261236b57600085556123b2565b82601f1061238457805160ff19168380011785556123b2565b828001600101855582156123b2579182015b828111156123b1578251825591602001919060010190612396565b5b5090506123bf91906123c3565b5090565b5b808211156123dc5760008160009055506001016123c4565b5090565b6000813590506123ef81612d85565b92915050565b60008135905061240481612d9c565b92915050565b60008083601f84011261241c57600080fd5b8235905067ffffffffffffffff81111561243557600080fd5b60208301915083600182028301111561244d57600080fd5b9250929050565b60008135905061246381612dac565b92915050565b60006020828403121561247b57600080fd5b6000612489848285016123e0565b91505092915050565b6000602082840312156124a457600080fd5b60006124b2848285016123f5565b91505092915050565b600080600080606085870312156124d157600080fd5b60006124df87828801612454565b94505060206124f087828801612454565b935050604085013567ffffffffffffffff81111561250d57600080fd5b6125198782880161240a565b925092505092959194509250565b612530816129cc565b82525050565b61253f816129ba565b82525050565b61254e816129de565b82525050565b61255d81612a27565b82525050565b600061256e82612889565b6125788185612894565b9350612588818560208601612a39565b61259181612b5a565b840191505092915050565b60006125a9601683612894565b91506125b482612b6b565b602082019050919050565b60006125cc602983612894565b91506125d782612b94565b604082019050919050565b60006125ef602083612894565b91506125fa82612be3565b602082019050919050565b6000612612603483612894565b915061261d82612c0c565b604082019050919050565b6000612635600e83612894565b915061264082612c5b565b602082019050919050565b6000612658602283612894565b915061266382612c84565b604082019050919050565b600061267b602883612894565b915061268682612cd3565b604082019050919050565b600061269e602983612894565b91506126a982612d22565b604082019050919050565b6126bd81612a1d565b82525050565b60006020820190506126d86000830184612536565b92915050565b60006020820190506126f36000830184612527565b92915050565b600060208201905061270e6000830184612545565b92915050565b60006040820190506127296000830185612554565b6127366020830184612536565b9392505050565b600060208201905081810360008301526127568161259c565b9050919050565b60006020820190508181036000830152612776816125bf565b9050919050565b60006020820190508181036000830152612796816125e2565b9050919050565b600060208201905081810360008301526127b681612605565b9050919050565b600060208201905081810360008301526127d681612628565b9050919050565b600060208201905081810360008301526127f68161264b565b9050919050565b600060208201905081810360008301526128168161266e565b9050919050565b6000602082019050818103600083015261283681612691565b9050919050565b600060808201905061285260008301876126b4565b61285f60208301866126b4565b81810360408301526128718185612563565b90506128806060830184612554565b95945050505050565b600081519050919050565b600082825260208201905092915050565b60006128b082612a1d565b91506128bb83612a1d565b9250827fffffffffffffffffffffffffffffffffffffffffffffffffffffffffffffffff038211156128f0576128ef612a9e565b5b828201905092915050565b600061290682612a1d565b915061291183612a1d565b92508261292157612920612acd565b5b828204905092915050565b600061293782612a1d565b915061294283612a1d565b9250817fffffffffffffffffffffffffffffffffffffffffffffffffffffffffffffffff048311821515161561297b5761297a612a9e565b5b828202905092915050565b600061299182612a1d565b915061299c83612a1d565b9250828210156129af576129ae612a9e565b5b828203905092915050565b60006129c5826129fd565b9050919050565b60006129d7826129fd565b9050919050565b60008115159050919050565b60008190506129f882612d71565b919050565b600073ffffffffffffffffffffffffffffffffffffffff82169050919050565b6000819050919050565b6000612a32826129ea565b9050919050565b60005b83811015612a57578082015181840152602081019050612a3c565b83811115612a66576000848401525b50505050565b60006002820490506001821680612a8457607f821691505b60208210811415612a9857612a97612b2b565b5b50919050565b7f4e487b7100000000000000000000000000000000000000000000000000000000600052601160045260246000fd5b7f4e487b7100000000000000000000000000000000000000000000000000000000600052601260045260246000fd5b7f4e487b7100000000000000000000000000000000000000000000000000000000600052602160045260246000fd5b7f4e487b7100000000000000000000000000000000000000000000000000000000600052602260045260246000fd5b6000601f19601f8301169050919050565b7f496e76616c6964206261726761696e20706572696f6400000000000000000000600082015250565b7f4261726761696e207761736e27742061636370657465642c206e65697468657260008201527f206465636c696e65640000000000000000000000000000000000000000000000602082015250565b7f4261726761696e2073756d2063616e2774206265206c657373207468616e2030600082015250565b7f4261726761696e2073756d2073686f756c6420657175616c20746f207468652060008201527f616d6f756e74206f662065746865722073656e74000000000000000000000000602082015250565b7f496e76616c696420616363657373000000000000000000000000000000000000600082015250565b7f596f752063616e277420696e697469616c697a652061206e657720626172676160008201527f696e000000000000000000000000000000000000000000000000000000000000602082015250565b7f4e6f7420636f727265637420737461746520666f722062757965722063616e6360008201527f656c6c6174696f6e000000000000000000000000000000000000000000000000602082015250565b7f4e6f7420636f727265637420737461746520666f722073656c6c65722063616e60008201527f63656c6c6174696f6e0000000000000000000000000000000000000000000000602082015250565b60078110612d8257612d81612afc565b5b50565b612d8e816129ba565b8114612d9957600080fd5b50565b60078110612da957600080fd5b50565b612db581612a1d565b8114612dc057600080fd5b5056fea2646970667358221220a6d8e4fdcd8e1f973914f82fd2bfdcfb9e0e411ad15f7214d3998e9c0b9e506464736f6c63430008040033",
  "linkReferences": {},
  "deployedLinkReferences": {}
}