{
  "_format": "hh-sol-artifact-1",
  "contractName": "Escrow",
  "sourceName": "contracts/Escrow.sol",
  "abi": [
    {
      "inputs": [],
      "stateMutability": "nonpayable",
      "type": "constructor"
    },
    {
      "anonymous": false,
      "inputs": [
        {
          "indexed": false,
          "internalType": "uint256",
          "name": "when",
          "type": "uint256"
        }
      ],
      "name": "Closed",
      "type": "event"
    },
    {
      "anonymous": false,
      "inputs": [
        {
          "indexed": false,
          "internalType": "uint256",
          "name": "when",
          "type": "uint256"
        },
        {
          "indexed": false,
          "internalType": "address",
          "name": "by",
          "type": "address"
        }
      ],
      "name": "ConfirmPurchase",
      "type": "event"
    },
    {
      "anonymous": false,
      "inputs": [
        {
          "indexed": false,
          "internalType": "uint256",
          "name": "when",
          "type": "uint256"
        },
        {
          "indexed": false,
          "internalType": "address",
          "name": "by",
          "type": "address"
        }
      ],
      "name": "ConfirmReceived",
      "type": "event"
    },
    {
      "anonymous": false,
      "inputs": [
        {
          "indexed": false,
          "internalType": "uint256",
          "name": "when",
          "type": "uint256"
        }
      ],
      "name": "End",
      "type": "event"
    },
    {
      "anonymous": false,
      "inputs": [
        {
          "indexed": false,
          "internalType": "uint256",
          "name": "when",
          "type": "uint256"
        }
      ],
      "name": "SellerRefundBuyer",
      "type": "event"
    },
    {
      "anonymous": false,
      "inputs": [
        {
          "indexed": false,
          "internalType": "uint256",
          "name": "when",
          "type": "uint256"
        }
      ],
      "name": "SellerRefunded",
      "type": "event"
    },
    {
      "anonymous": false,
      "inputs": [
        {
          "indexed": false,
          "internalType": "uint256",
          "name": "when",
          "type": "uint256"
        }
      ],
      "name": "Started",
      "type": "event"
    },
    {
      "inputs": [],
      "name": "buyer",
      "outputs": [
        {
          "internalType": "address payable",
          "name": "",
          "type": "address"
        }
      ],
      "stateMutability": "view",
      "type": "function"
    },
    {
      "inputs": [],
      "name": "close",
      "outputs": [],
      "stateMutability": "nonpayable",
      "type": "function"
    },
    {
      "inputs": [],
      "name": "confirmPurchase",
      "outputs": [],
      "stateMutability": "payable",
      "type": "function"
    },
    {
      "inputs": [],
      "name": "confirmReceived",
      "outputs": [],
      "stateMutability": "nonpayable",
      "type": "function"
    },
    {
      "inputs": [],
      "name": "itemSale",
      "outputs": [
        {
          "internalType": "string",
          "name": "",
          "type": "string"
        }
      ],
      "stateMutability": "view",
      "type": "function"
    },
    {
      "inputs": [],
      "name": "listPreviousBuyers",
      "outputs": [
        {
          "internalType": "address[]",
          "name": "",
          "type": "address[]"
        }
      ],
      "stateMutability": "view",
      "type": "function"
    },
    {
      "inputs": [],
      "name": "price",
      "outputs": [
        {
          "internalType": "uint256",
          "name": "",
          "type": "uint256"
        }
      ],
      "stateMutability": "view",
      "type": "function"
    },
    {
      "inputs": [],
      "name": "refundBuyer",
      "outputs": [],
      "stateMutability": "nonpayable",
      "type": "function"
    },
    {
      "inputs": [],
      "name": "refundSeller",
      "outputs": [],
      "stateMutability": "nonpayable",
      "type": "function"
    },
    {
      "inputs": [],
      "name": "seller",
      "outputs": [
        {
          "internalType": "address payable",
          "name": "",
          "type": "address"
        }
      ],
      "stateMutability": "view",
      "type": "function"
    },
    {
      "inputs": [
        {
          "internalType": "string",
          "name": "_itemSale",
          "type": "string"
        },
        {
          "internalType": "uint256",
          "name": "_price",
          "type": "uint256"
        }
      ],
      "name": "startContract",
      "outputs": [],
      "stateMutability": "payable",
      "type": "function"
    },
    {
      "inputs": [],
      "name": "state",
      "outputs": [
        {
          "internalType": "enum Escrow.State",
          "name": "",
          "type": "uint8"
        }
      ],
      "stateMutability": "view",
      "type": "function"
    },
    {
      "inputs": [],
      "name": "totalSales",
      "outputs": [
        {
          "internalType": "uint256",
          "name": "count",
          "type": "uint256"
        }
      ],
      "stateMutability": "view",
      "type": "function"
    }
  ],
  "bytecode": "0x608060405234801561001057600080fd5b5033600260006101000a81548173ffffffffffffffffffffffffffffffffffffffff021916908373ffffffffffffffffffffffffffffffffffffffff16021790555060006001819055506003600560006101000a81548160ff021916908360048111156100a6577f4e487b7100000000000000000000000000000000000000000000000000000000600052602160045260246000fd5b0217905550611c91806100ba6000396000f3fe6080604052600436106100c25760003560e01c806373fac6f01161007f578063c7981b1b11610059578063c7981b1b14610213578063d69606971461022a578063e8a61cc814610234578063f74c124b1461024b576100c2565b806373fac6f0146101a6578063a035b1fe146101bd578063c19d93fb146101e8576100c2565b806308551a53146100c757806343d726d6146100f25780634887475214610109578063491b1953146101255780636605ff66146101505780637150d8ae1461017b575b600080fd5b3480156100d357600080fd5b506100dc610276565b6040516100e99190611650565b60405180910390f35b3480156100fe57600080fd5b5061010761029c565b005b610123600480360381019061011e9190611430565b6104e3565b005b34801561013157600080fd5b5061013a6107ed565b60405161014791906116a8565b60405180910390f35b34801561015c57600080fd5b5061016561087b565b604051610172919061178a565b60405180910390f35b34801561018757600080fd5b50610190610888565b60405161019d9190611650565b60405180910390f35b3480156101b257600080fd5b506101bb6108ae565b005b3480156101c957600080fd5b506101d2610ab0565b6040516101df919061178a565b60405180910390f35b3480156101f457600080fd5b506101fd610ab6565b60405161020a919061168d565b60405180910390f35b34801561021f57600080fd5b50610228610ac9565b005b610232610da3565b005b34801561024057600080fd5b50610249610ff7565b005b34801561025757600080fd5b50610260611282565b60405161026d919061166b565b60405180910390f35b600260009054906101000a900473ffffffffffffffffffffffffffffffffffffffff1681565b600260009054906101000a900473ffffffffffffffffffffffffffffffffffffffff1673ffffffffffffffffffffffffffffffffffffffff163373ffffffffffffffffffffffffffffffffffffffff161461032c576040517f08c379a00000000000000000000000000000000000000000000000000000000081526004016103239061170a565b60405180910390fd5b6000806004811115610367577f4e487b7100000000000000000000000000000000000000000000000000000000600052602160045260246000fd5b600560009054906101000a900460ff1660048111156103af577f4e487b7100000000000000000000000000000000000000000000000000000000600052602160045260246000fd5b146103ef576040517f08c379a00000000000000000000000000000000000000000000000000000000081526004016103e6906116ea565b60405180910390fd5b6003600560006101000a81548160ff0219169083600481111561043b577f4e487b7100000000000000000000000000000000000000000000000000000000600052602160045260246000fd5b0217905550600260009054906101000a900473ffffffffffffffffffffffffffffffffffffffff1673ffffffffffffffffffffffffffffffffffffffff166108fc479081150290604051600060405180830381858888f193505050501580156104a8573d6000803e3d6000fd5b507f6cc09e7b5c3e49861ebe8f6867e1618fbfc14c8d0e968fde37c4243ca02a6f83426040516104d8919061178a565b60405180910390a150565b600260009054906101000a900473ffffffffffffffffffffffffffffffffffffffff1673ffffffffffffffffffffffffffffffffffffffff163373ffffffffffffffffffffffffffffffffffffffff1614610573576040517f08c379a000000000000000000000000000000000000000000000000000000000815260040161056a9061170a565b60405180910390fd5b600360048111156105ad577f4e487b7100000000000000000000000000000000000000000000000000000000600052602160045260246000fd5b600560009054906101000a900460ff1660048111156105f5577f4e487b7100000000000000000000000000000000000000000000000000000000600052602160045260246000fd5b148061067f5750600480811115610635577f4e487b7100000000000000000000000000000000000000000000000000000000600052602160045260246000fd5b600560009054906101000a900460ff16600481111561067d577f4e487b7100000000000000000000000000000000000000000000000000000000600052602160045260246000fd5b145b6106be576040517f08c379a00000000000000000000000000000000000000000000000000000000081526004016106b59061172a565b60405180910390fd5b81600090805190602001906106d4929190611310565b50806001819055503460015414610720576040517f08c379a00000000000000000000000000000000000000000000000000000000081526004016107179061176a565b60405180910390fd5b6000600560006101000a81548160ff0219169083600481111561076c577f4e487b7100000000000000000000000000000000000000000000000000000000600052602160045260246000fd5b02179055506000600360006101000a81548173ffffffffffffffffffffffffffffffffffffffff021916908373ffffffffffffffffffffffffffffffffffffffff1602179055507e6e0c97de781a7389d44ba8fd35d1467cabb17ed04d038d166d34ab819213f3426040516107e1919061178a565b60405180910390a15050565b600080546107fa906119be565b80601f0160208091040260200160405190810160405280929190818152602001828054610826906119be565b80156108735780601f1061084857610100808354040283529160200191610873565b820191906000526020600020905b81548152906001019060200180831161085657829003601f168201915b505050505081565b6000600480549050905090565b600360009054906101000a900473ffffffffffffffffffffffffffffffffffffffff1681565b600360009054906101000a900473ffffffffffffffffffffffffffffffffffffffff1673ffffffffffffffffffffffffffffffffffffffff163373ffffffffffffffffffffffffffffffffffffffff161461093e576040517f08c379a0000000000000000000000000000000000000000000000000000000008152600401610935906116ca565b60405180910390fd5b6001806004811115610979577f4e487b7100000000000000000000000000000000000000000000000000000000600052602160045260246000fd5b600560009054906101000a900460ff1660048111156109c1577f4e487b7100000000000000000000000000000000000000000000000000000000600052602160045260246000fd5b14610a01576040517f08c379a00000000000000000000000000000000000000000000000000000000081526004016109f8906116ea565b60405180910390fd5b6002600560006101000a81548160ff02191690836004811115610a4d577f4e487b7100000000000000000000000000000000000000000000000000000000600052602160045260246000fd5b02179055507fb96dd9bac389907c79dfc675d3c2dedf6867a8bad8c1b98568cafc4b42751b0942600360009054906101000a900473ffffffffffffffffffffffffffffffffffffffff16604051610aa59291906117a5565b60405180910390a150565b60015481565b600560009054906101000a900460ff1681565b600260009054906101000a900473ffffffffffffffffffffffffffffffffffffffff1673ffffffffffffffffffffffffffffffffffffffff163373ffffffffffffffffffffffffffffffffffffffff1614610b59576040517f08c379a0000000000000000000000000000000000000000000000000000000008152600401610b509061170a565b60405180910390fd5b6002806004811115610b94577f4e487b7100000000000000000000000000000000000000000000000000000000600052602160045260246000fd5b600560009054906101000a900460ff166004811115610bdc577f4e487b7100000000000000000000000000000000000000000000000000000000600052602160045260246000fd5b14610c1c576040517f08c379a0000000000000000000000000000000000000000000000000000000008152600401610c13906116ea565b60405180910390fd5b6004600560006101000a81548160ff02191690836004811115610c68577f4e487b7100000000000000000000000000000000000000000000000000000000600052602160045260246000fd5b0217905550600260009054906101000a900473ffffffffffffffffffffffffffffffffffffffff1673ffffffffffffffffffffffffffffffffffffffff166108fc6001546002610cb89190611879565b9081150290604051600060405180830381858888f19350505050158015610ce3573d6000803e3d6000fd5b506004600360009054906101000a900473ffffffffffffffffffffffffffffffffffffffff169080600181540180825580915050600190039060005260206000200160009091909190916101000a81548173ffffffffffffffffffffffffffffffffffffffff021916908373ffffffffffffffffffffffffffffffffffffffff1602179055507f3273c35ae429700d7ddfd8e47f99c0686bb32ef7c31f00fe6eb66b690c952e4942604051610d98919061178a565b60405180910390a150565b600260009054906101000a900473ffffffffffffffffffffffffffffffffffffffff1673ffffffffffffffffffffffffffffffffffffffff163373ffffffffffffffffffffffffffffffffffffffff161415610e34576040517f08c379a0000000000000000000000000000000000000000000000000000000008152600401610e2b9061174a565b60405180910390fd5b6000806004811115610e6f577f4e487b7100000000000000000000000000000000000000000000000000000000600052602160045260246000fd5b600560009054906101000a900460ff166004811115610eb7577f4e487b7100000000000000000000000000000000000000000000000000000000600052602160045260246000fd5b14610ef7576040517f08c379a0000000000000000000000000000000000000000000000000000000008152600401610eee906116ea565b60405180910390fd5b600154341480610f0657600080fd5b33600360006101000a81548173ffffffffffffffffffffffffffffffffffffffff021916908373ffffffffffffffffffffffffffffffffffffffff1602179055506001600560006101000a81548160ff02191690836004811115610f93577f4e487b7100000000000000000000000000000000000000000000000000000000600052602160045260246000fd5b02179055507f6df03f50e5eb5f7ec6366825f9ba45fea1a7a29151abb5dcecf204313129bb6142600360009054906101000a900473ffffffffffffffffffffffffffffffffffffffff16604051610feb9291906117a5565b60405180910390a15050565b600260009054906101000a900473ffffffffffffffffffffffffffffffffffffffff1673ffffffffffffffffffffffffffffffffffffffff163373ffffffffffffffffffffffffffffffffffffffff1614611087576040517f08c379a000000000000000000000000000000000000000000000000000000000815260040161107e9061170a565b60405180910390fd5b60018060048111156110c2577f4e487b7100000000000000000000000000000000000000000000000000000000600052602160045260246000fd5b600560009054906101000a900460ff16600481111561110a577f4e487b7100000000000000000000000000000000000000000000000000000000600052602160045260246000fd5b1461114a576040517f08c379a0000000000000000000000000000000000000000000000000000000008152600401611141906116ea565b60405180910390fd5b6000600560006101000a81548160ff02191690836004811115611196577f4e487b7100000000000000000000000000000000000000000000000000000000600052602160045260246000fd5b0217905550600360009054906101000a900473ffffffffffffffffffffffffffffffffffffffff1673ffffffffffffffffffffffffffffffffffffffff166108fc6001549081150290604051600060405180830381858888f19350505050158015611205573d6000803e3d6000fd5b506000600360006101000a81548173ffffffffffffffffffffffffffffffffffffffff021916908373ffffffffffffffffffffffffffffffffffffffff1602179055507fb141fd6cde1ad9b9950bdb10ef50487a6b31c237c16e12df3c1a72e16b29ae7c42604051611277919061178a565b60405180910390a150565b6060600480548060200260200160405190810160405280929190818152602001828054801561130657602002820191906000526020600020905b8160009054906101000a900473ffffffffffffffffffffffffffffffffffffffff1673ffffffffffffffffffffffffffffffffffffffff16815260200190600101908083116112bc575b5050505050905090565b82805461131c906119be565b90600052602060002090601f01602090048101928261133e5760008555611385565b82601f1061135757805160ff1916838001178555611385565b82800160010185558215611385579182015b82811115611384578251825591602001919060010190611369565b5b5090506113929190611396565b5090565b5b808211156113af576000816000905550600101611397565b5090565b60006113c66113c1846117f3565b6117ce565b9050828152602081018484840111156113de57600080fd5b6113e984828561197c565b509392505050565b600082601f83011261140257600080fd5b81356114128482602086016113b3565b91505092915050565b60008135905061142a81611c44565b92915050565b6000806040838503121561144357600080fd5b600083013567ffffffffffffffff81111561145d57600080fd5b611469858286016113f1565b925050602061147a8582860161141b565b9150509250929050565b600061149083836114ba565b60208301905092915050565b6114a581611934565b82525050565b6114b4816118e5565b82525050565b6114c3816118d3565b82525050565b60006114d482611834565b6114de8185611857565b93506114e983611824565b8060005b8381101561151a5781516115018882611484565b975061150c8361184a565b9250506001810190506114ed565b5085935050505092915050565b61153081611946565b82525050565b60006115418261183f565b61154b8185611868565b935061155b81856020860161198b565b61156481611add565b840191505092915050565b600061157c601983611868565b915061158782611aee565b602082019050919050565b600061159f600e83611868565b91506115aa82611b17565b602082019050919050565b60006115c2601a83611868565b91506115cd82611b40565b602082019050919050565b60006115e5603c83611868565b91506115f082611b69565b604082019050919050565b6000611608601b83611868565b915061161382611bb8565b602082019050919050565b600061162b603383611868565b915061163682611be1565b604082019050919050565b61164a8161192a565b82525050565b600060208201905061166560008301846114ab565b92915050565b6000602082019050818103600083015261168581846114c9565b905092915050565b60006020820190506116a26000830184611527565b92915050565b600060208201905081810360008301526116c28184611536565b905092915050565b600060208201905081810360008301526116e38161156f565b9050919050565b6000602082019050818103600083015261170381611592565b9050919050565b60006020820190508181036000830152611723816115b5565b9050919050565b60006020820190508181036000830152611743816115d8565b9050919050565b60006020820190508181036000830152611763816115fb565b9050919050565b600060208201905081810360008301526117838161161e565b9050919050565b600060208201905061179f6000830184611641565b92915050565b60006040820190506117ba6000830185611641565b6117c7602083018461149c565b9392505050565b60006117d86117e9565b90506117e482826119f0565b919050565b6000604051905090565b600067ffffffffffffffff82111561180e5761180d611aae565b5b61181782611add565b9050602081019050919050565b6000819050602082019050919050565b600081519050919050565b600081519050919050565b6000602082019050919050565b600082825260208201905092915050565b600082825260208201905092915050565b60006118848261192a565b915061188f8361192a565b9250817fffffffffffffffffffffffffffffffffffffffffffffffffffffffffffffffff04831182151516156118c8576118c7611a21565b5b828202905092915050565b60006118de8261190a565b9050919050565b60006118f08261190a565b9050919050565b600081905061190582611c30565b919050565b600073ffffffffffffffffffffffffffffffffffffffff82169050919050565b6000819050919050565b600061193f82611958565b9050919050565b6000611951826118f7565b9050919050565b60006119638261196a565b9050919050565b60006119758261190a565b9050919050565b82818337600083830152505050565b60005b838110156119a957808201518184015260208101905061198e565b838111156119b8576000848401525b50505050565b600060028204905060018216806119d657607f821691505b602082108114156119ea576119e9611a7f565b5b50919050565b6119f982611add565b810181811067ffffffffffffffff82111715611a1857611a17611aae565b5b80604052505050565b7f4e487b7100000000000000000000000000000000000000000000000000000000600052601160045260246000fd5b7f4e487b7100000000000000000000000000000000000000000000000000000000600052602160045260246000fd5b7f4e487b7100000000000000000000000000000000000000000000000000000000600052602260045260246000fd5b7f4e487b7100000000000000000000000000000000000000000000000000000000600052604160045260246000fd5b6000601f19601f8301169050919050565b7f4f6e6c792062757965722063616e2063616c6c20746869732e00000000000000600082015250565b7f496e76616c69642073746174652e000000000000000000000000000000000000600082015250565b7f4f6e6c792073656c6c65722063616e2063616c6c20746869732e000000000000600082015250565b7f4f6e6c7920636c6f736564206f7220636f6d706c6574656420636f6e7472616360008201527f742069732061626c6520746f2073746172742061206e6577206f6e6500000000602082015250565b7f53656c6c65722073686f756c646e27742063616c6c20746869732e0000000000600082015250565b7f56616c75652068617320746f20626520657175616c20746f207768617420737460008201527f61727465642074686520636f6e74726163742e00000000000000000000000000602082015250565b60058110611c4157611c40611a50565b5b50565b611c4d8161192a565b8114611c5857600080fd5b5056fea2646970667358221220c2ef5c933d91b220c2f38b9252c90ea0d5a7465e3605a21d73271fb2f9a3004364736f6c63430008040033",
  "linkReferences": {},
  "deployedLinkReferences": {}
}